:1000000014C02DC02CC02BC02BC029C028C027C0B5
:1000100026C025C024C023C022C021C02BC01FC0C1
:100020001EC01DC01CC01BC09F0011241FBECFEFEF
:10003000D2E0DEBFCDBF11E0A0E0B1E001C01D9273
:10004000A631B107E1F710E0CAE2D0E003C0229781
:10005000FE01EBD0C832D107D1F776D0EAC0D0CFBD
:100060001F920F920FB60F9211240F900FBE0F9098
:100070001F9018951F920F920FB60F9211242F9375
:100080008F939F93AF93BF93EF93FF938091120150
:10009000909113010196811522E09207F1F090935F
:1000A00013018093120115B8E0910001F0E0EF5FB9
:1000B000FE4F80818BB981E090E00090000102C08A
:1000C000880F991F0A94E2F785B9809100018F5F2C
:1000D000883039F18093000126C0109213011092EC
:1000E0001201809111018F5F883019F08093110106
:1000F00002C01092110180911101A1E0B1E090E0E5
:1001000081509140FC01EA0FFB1FE770FF27E75F7A
:10011000FE4F208120952D9321E0A930B20791F761
:10012000C2CF10920001FF91EF91BF91AF919F91CB
:100130008F912F910F900FBE0F901F9018951092D6
:1001400015011092140108958091640081608093DC
:10015000640088E10FB6F89480936000109260000C
:100160000FBE8FEF84B98AB915B81BB888B18868FB
:1001700088B982E085BD81E080936E008CE3809336
:10018000090196E190930A012FE120930B019093CE
:100190000C0180930D0110920E0110920F0110922C
:1001A0001001789431E025E033BF889586B18878D6
:1001B000A9F58091140190911501811548E09407EB
:1001C00030F401969093150180931401EDCF809146
:1001D0006E008E7F80936E0015B81BB8339BFECFE8
:1001E000379BFCCF8FE19EE40197F1F700C0000040
:1001F00080916C00886880936C00809168008260B8
:100200008093680023BF889580916C0087778093E6
:100210006C0080916E00816080936E0010921501D9
:1002200010921401C1CFEE0FFF1F0590F491E02D45
:060230000994F894FFCFD1
:00000001FF
