:100000002AC24EC24DC24CC2ECC54AC29EC6AEC543
:1000100047C246C245C244C243C242C2A0C640C251
:10002000EAC53EC23DC23CC240C845C85FC8DAC846
:100030007FC886C88DC899C89BC8A6C8BBC80620FB
:1000400040402020400441413608017F04083641E9
:100050004105111315191105190505051E05110A8C
:10006000040A11071E01010201011E051C02010202
:100070001C051E0101011E05103E11110105091587
:10008000151502051F0408101005081414140F0597
:100090000F14141408050E1111110E051F10101065
:1000A0000F071F10100C10100F017F057F040C129A
:1000B0000105020101015E015F057F1010100F05AF
:1000C000081515151E05103F505040050E15151545
:1000D0000C050E1111117F050E1111110A057F116A
:1000E00011110E05021515150F0240200501010121
:1000F00001010510204020100341417F03601C03D3
:10010000037F41410543454951610560100F10606F
:10011000056314081463077E01011E01017E057C3E
:100120000201027C057E0101017E0540407F4040C6
:10013000053249494926057F44444639053E414533
:10014000423D057F48484830053E4141413E057FDC
:100150001008047F077F10080408107F057F010145
:100160000101057F0814224105020101017E017F82
:10017000057F0808087F053E4141492F057F484813
:100180004040057F49494141057F4141413E053E8F
:1001900041414122057F49494936053F4848483F8A
:1001A000073E4149555D453805204045483003220A
:1001B0001408051414141414030814220201120163
:1001C0001205324949493E053649494936054344F5
:1001D000485060053E4949492605725151514E0526
:1001E0000C1424447F0522414949360521434549E1
:1001F000310310207F053E4549513E03031C600139
:10020000010508080808080201020508083E080858
:100210000528107C10280341221C031C2241017078
:1002200005364949492705122A7F2A2406123F121A
:10023000123F120430403040017D030000000730BF
:100240004A34081629061028D000200176322E31B3
:10025000202D20426C696E6B656E726F636B6574E6
:100260002053746F7261676520697320656D7074C7
:10027000793E023A023A023A023A023A023A023A23
:10028000023A023A023A023A023A023A023A023A8E
:10029000023A023A023A023A023A023A023A023A7E
:1002A000023A023A023A023A023A023A023A023A6E
:1002B000023A02380233022C0226023E0220021EBB
:1002C000021A02160210020A0207020102FF01FBD3
:1002D00001F501F101EB01E501DF01D901D301CD08
:1002E00001C701C101BF01BC01B801B201AE01A843
:1002F00001A0019A0194018E01880182017C01769E
:100300000170016E01680162015C0154014E0148F7
:100310000142013C01360130012A0124011E01166F
:100320000110010A0104010001FC00F800F200ECD8
:1003300000E900E300DD00D700D100CB00C500BF1D
:1003400000B900B700B100AB00A900A1009B009567
:10035000008F00890083007D00770071006B0063CF
:10036000005D00570051004C004A0045003E00204F
:10037000400E0F00000000000000000000001818F0
:1003800000000000001818181800000018181818AD
:1003900018180018181818181818183C24242424A1
:1003A00024243C7E4242424242427EFF818181813E
:1003B0008181FF00090A030B0201080C05060F07E3
:1003C0000E0D0400030506060503000704020101E3
:1003D00002040700FEFE01FE020408FE1020408019
:1003E000FFFFFF20100800000000000000000000D8
:1003F0000007335598000020400E0FFF8181818156
:100400008181FF7E4242424242427E3C2424242497
:1004100024243C1818181818181818001818181838
:10042000181800000018181818000000000018180C
:1004300000000000000000000000001015E0002097
:1004400002205472616E736D697373696F6E2065FB
:1004500072726F72E90611241FBECFEFD2E0DEBFC9
:10046000CDBF11E0A0E0B1E0E0E0F3E102C0059013
:100470000D92A230B107D9F721E0A2E0B1E001C0AE
:100480001D92AD3FB207E1F714E0C6E5D4E003C02A
:100490002297FE012FD7C435D107D1F7B0D42EC78C
:1004A000AFCD982F262FFB0134E88E2F821B8917A2
:1004B00068F441914093BB003093BC004091BC0074
:1004C00047FFFCCF4091B900483279F3089584EAA0
:1004D0008093BC008091BC0087FFFCCF8091B90065
:1004E000887191F080EA8093BB0084E88093BC001F
:1004F0008091BC0087FFFCCF8091B900883111F05A
:1005000082E0089580E0089581E008956B9A739ADF
:100510003A9AEAE7F0E08DEA808386E480937C00F3
:1005200080818064808383E080938100689808954F
:1005300073986B983A98EAE7F0E080818F77808330
:100540000895BF92CF92DF92EF92FF920F931F9385
:10055000CF93DF9300D0CDB7DEB7E42E8901898336
:100560006A83F12C84EAD82E91EAC92E24E8B22EAF
:10057000AEDF81113FC0BE016F5F7F4F82E091DF30
:100580008230C1F5D092BC008091BC0087FFFCCFC7
:100590008091B900887171F1C092BB00B092BC002B
:1005A0008091BC0087FFFCCF8091B900803411F5A9
:1005B000F8018E2D90E0019744EC54E82E2F201B7B
:1005C0002E1598F49F01201B310B2817390719F4B9
:1005D0005093BC0002C04093BC002091BC0027FF98
:1005E000FCCF2091BB002193E9CF84E98093BC002C
:1005F00080E00FC0F39490E2F91639F087EE93E0B3
:100600000197F1F700C00000B3CF84E98093BC00EC
:1006100083E00F900F90DF91CF911F910F91FF908A
:10062000EF90DF90CF90BF9008959B01880F880FC7
:100630009091A301890F682F6295660F607E6C5FB1
:1006400086958695869540E88F5F7BCF80910B01DC
:10065000282F30E074E0359527957A95E1F7322F11
:10066000209302018F7090E0982F882720910C0131
:10067000820F911D90930401809303013130B9F4EE
:1006800030910D01432F407F2AEF241B2093050159
:100690003F703093060140910E01242F30E064E05A
:1006A000359527956A95E1F72093070117C03230F9
:1006B000C1F430910D013295307F2AEF231B209336
:1006C000050140910E01242F30E054E03595279527
:1006D0005A95E1F720930601109207014F7040935D
:1006E00008012FE031E030930A012093090122E054
:1006F00031E03093EB012093EA01E0EFF1E02FEFDE
:10070000219331E0E83FF307D9F71092EC01109202
:10071000FB011092F8011092F9012FEF2093FA01DA
:1007200021E02093ED011092FC012091050120931E
:10073000EE01209107012130B9F48138910558F07C
:100740000197880F892F881F990B91958093F90144
:100750006FE071E06ADFE091EA01F091EB018181E5
:1007600081508F778093F8010895CF93DF93FB0139
:10077000ABE0B1E084918D93319681E0AF30B80762
:10078000C9F780E090910C01891768F4E82FF0E038
:100790003496E60FF71FE491C82FD0E0C55FDE4F17
:1007A000EC838F5FEFCFDF91CF9150CF2091A201EB
:1007B00021502E3FA8F46F5F23EA31E041E080E052
:1007C000C0DE8091A301682F6295660F607E8695DA
:1007D000869586952BE031E044E88F5FB2DE36CF18
:1007E00066E472E0C2CFCF93DF938091ED0188235E
:1007F00009F450C11092ED018091FC01811127C1D3
:10080000C091EA01D091EB018881813009F068C084
:100810008D81811128C0E1EFF1E0A0EFB1E081917D
:100820008D9381E0E83FF807D1F77091F801EF81EF
:10083000F885E70FF11DE081F0E0EE0FFF1FEF58A4
:10084000FD4F25913491F90184916091FA016F5F18
:1008500090E0462F552747FD50958417950784F063
:100860006093FA0117C0813001F7A7EFB1E0E8EF1C
:10087000F1E08E91829381E0E13FF807D1F7D5CF87
:100880001092FA014D81411102C07F5F01C0715089
:100890007093F8015D814091FA01511110C041112E
:1008A00004C08FEF8093F70135C0F901E40FF11D0B
:1008B00047FDFA95249120952093F7012BC0411113
:1008C00002C08FEF0AC0FC01E41BF10947FDF3955C
:1008D0003196E20FF31F849180958093F0011AC046
:1008E0008230C1F45091F801A0EFB1E080E090E0D7
:1008F000252F30E0EF81F885E80FF91FE20FF31F95
:10090000408140954D9301968830910599F7585F45
:100910005093F8018D81811147C08091F90129819F
:100920003A81A90141505109E82FF0E0BA01660F60
:10093000672F661F770B7195E617F70719F560911A
:10094000F80170E04F77552746175707D8F41092F3
:10095000F9011092F8018C81882331F082E08093B4
:10096000FC0184EF8093EE0189819A8181389105A1
:1009700020F06F81788580E058DEE091EA01F09107
:10098000EB013FC02138310508F484C09091F80193
:1009900097FF80C01092F8018F5F8093F9016F81FB
:1009A0007885DF91CF9141CE8091F80187FF72C0A9
:1009B0008091F901811141C089819A818138910525
:1009C00058F00197880F892F881F990B9195809374
:1009D000F9016F81788529DEE091EA01F091EB0160
:1009E0008481882349F01092F80182E08093FC0111
:1009F00084EF8093EE0105C0818181508F778093D1
:100A0000F8018681882309F445C08091FB018F5F3E
:100A10008093FB01968189133DC08091A10190E0F4
:100A200001966091A20170E03CD48093A101682FEF
:100A30008CE991E0DF91CF91B9CE81508093F9019B
:100A40006F817885F2DD8FE78093F80123C08230D3
:100A500009F58091F8018F5F8093F801E091EA0138
:100A6000F091EB0194818917A8F08581811103C071
:100A70001092F8010AC0818192812FEF280F8138EE
:100A8000910508F02F772093F8011092FC018381E3
:100A90008093EE01DF91CF910895EF92FF920F9333
:100AA0001F93CF93DF9300D0CDB7DEB7E42E89013B
:100AB00089836A83F12C0BDD811111C0BE016F5F48
:100AC0007F4F82E0EEDC823051F4B8018E2DE9DCFC
:100AD0008E1105C084E98093BC0080E00FC0F394C0
:100AE00090E2F91639F087EE93E00197F1F700C034
:100AF0000000E1CF84E98093BC0083E00F900F9069
:100B0000DF91CF911F910F91FF90EF9008959C017D
:100B10008091A401883F78F4682F6295660F607E0B
:100B200086958695869540E28F5FB7DF8091A40118
:100B30008F5F8093A4010895CF93DF93EC016091C0
:100B4000A2016E3F80F48091A401883F60F46F5F42
:100B50006093A20124EA31E041E080E09EDFCE0113
:100B6000DF91CF91D4CFDF91CF9108951F920F9253
:100B70000FB60F9211242F933F934F935F936F9370
:100B80007F938F939F93AF93BF93EF93FF9388E1EE
:100B90000FB6F89480936000109260000FBEC8DC1E
:100BA0001092A6011092A501B1DC1092E8011092FA
:100BB0009F011092A1016BE374E08CE991E0D5DD17
:100BC000FF91EF91BF91AF919F918F917F916F9125
:100BD0005F914F913F912F910F900FBE0F901F90FB
:100BE00018951F920F920FB60F9211240F900FBEFF
:100BF0000F901F9018951F920F920FB60F9211240D
:100C00002F933F934F935F936F937F938F939F9314
:100C1000EF93FF93209100013091010130939B01EC
:100C200020939A018091780090917900909301012E
:100C3000809300014091980150919901281739073C
:100C400018F4821B930B04C0B901681B790BCB010C
:100C5000840F951F9093990180939801209197019B
:100C60002F5F20939701283008F460C010929701FD
:100C7000109299011092980120919601243618F44F
:100C80002F5F209396018639910580F4809196011B
:100C9000893170F010929501109294011092930195
:100CA0001092A6011092A501429840C082E001C0B6
:100CB00081E0809392018091950190919201981723
:100CC000A9F1882369F18091930190E0959587952A
:100CD00020919601263010F420E001C020E8822BFC
:100CE0008093930188B194E0892788B98091940119
:100CF0008F5F80939401877099F480919301E091C4
:100D0000A5019091A6017E2F791B703449F091E0E6
:100D10009E0F9093A501EF73F0E0EB55FE4F828399
:100D2000809192018093950110929601FF91EF912D
:100D30009F918F917F916F915F914F913F912F91F3
:100D40000F900FBE0F901F9018951F920F920FB625
:100D50000F9211240F900FBE0F901F9018951F92A5
:100D60000F920FB60F9211242F938F939F93EF93AF
:100D7000FF9315B82091EF01E22FF0E0E651FE4F0E
:100D800086818BB981E090E0022E01C0880F0A9421
:100D9000EAF785B92F5F2093EF01283081F4109294
:100DA000EF018091EC018F5F8093EC019091EE0157
:100DB000891305C01092EC0181E08093ED01FF9151
:100DC000EF919F918F912F910F900FBE0F901F90D9
:100DD000189510929D0110929C0110929F01109203
:100DE000A1011092A00110929E011092A2011092F6
:100DF000A4011092E7018FEF8093FA01089588E132
:100E00000FB6F89480936000109260000FBE88B116
:100E1000886888B98FEF84B98AB982E085BD81E09E
:100E200080936E0073DB1092E8011092B90080E2AB
:100E30008093B80022EA31E041E060E080E081DBAD
:100E400078941092A1016FE673E08CE991E08DDC5B
:100E500082E0982EC9EED1E098E0892E12E02AE0D7
:100E6000722E39E0632E81E083BF889586B1887841
:100E700009F064C080919C0190919D01811528E04A
:100E8000920730F4019690939D0180939C015AC083
:100E90004FDB67EF73E08CE991E067DC339BA5C122
:100EA000379BA3C104E69FDC8FEC97E00197F1F735
:100EB00000C000000150B9F780916E008E7F8093D2
:100EC0006E0015B81BB88091640081608093640047
:100ED00080916C00886880936C00809168008260CB
:100EE0008093680085E083BF889580916C00877748
:100EF00080936C006091A1018CE991E057DC8FEF49
:100F000084B98AB995BC81E080936E00339B6FC130
:100F1000379B6DC104E667DC8FEC97E00197F1F732
:100F200000C000000150B9F7809164008E7F80936B
:100F30006400ECDA1092E80110929F0110929D017A
:100F400010929C0180919E01811138C0339905C097
:100F50008091A00182608093A001379905C08091A3
:100F6000A00181608093A00186B18878883849F516
:100F7000F8948091A001823061F48091A10190E009
:100F800001966091A20170E08CD18093A101682F3D
:100F90000DC0813071F48091A101811102C0809156
:100FA000A20181508093A1016091A1018CE991E09F
:100FB000FDDB1092A001789484E601C081508093FB
:100FC0009E0107E0A02EFF24F394E6E0EE2EF5E06C
:100FD000DF2E08E1A4E0CA2EB0E6BB2E2091A501C9
:100FE000E091A601922F9E1B8091E801933040F47E
:100FF000813009F0FEC01092E8014091E90132C051
:101000008130C9F3F092E8012E1709F4F4C081E0B1
:101010008E0F8093A601EF73F0E0EB55FE4F8281B7
:10102000E091A6012E1709F4E8C091E09E0F90937D
:10103000A601EF73F0E0EB55FE4F92819093E9012A
:10104000E091A6012E1709F4DAC021E02E0F2093BB
:10105000A601EF73F0E0EB55FE4F4281209709F0B7
:10106000D0C0482F80919F018530B0F0E091910170
:1010700091E09E0F90939101F0E0E259FE4F408382
:10108000893050F020918F01309190012150310929
:101090003093900120938F0190E08B30910508F000
:1010A000A1C0FC01EC5EFF4F0994453A09F08DCFD9
:1010B000F0929F0193CF4A35A9F410939F011092AB
:1010C000A4011092A20163EE73E08CE991E04DDB84
:1010D00084B7877F84BFF89400936000B09260006B
:1010E00078947CCF453A09F07DC0E2CF4F3019F4B7
:1010F000C0929F0173CF443809F074C022EA31E0F6
:1011000041E060E080E0C9DC1092A10160E08CE980
:1011100091E04CDB10929F010FB6F89400936000B1
:10112000109260000FBE1092A6011092A50156CF3A
:10113000403F09F057C0D0929F01109291014ECFCD
:10114000E0929F014F7010928F014093900146CF23
:10115000A0929F0180918F0190919001840F911D29
:101160009093900180938F013BC080929F0136CF76
:1011700060929F0180918F0190919001892B09F0DD
:1011800024CF10939F012ACF80918F0190919001DD
:10119000892B19F410939F0109C08091910180322D
:1011A00009F013CF70929F01109291018EE691E0A9
:1011B000C3DC14CF80918F0190919001892B31F481
:1011C00010939F018EE691E0A2DC08CF80919101FF
:1011D000803209F0FACE109291018EE691E097DC10
:1011E000A895FCCE10929F01F9CEFDDA57CEFBDA1E
:1011F0008DCEF9DA38CE80E013CF90E01FCF40E0FB
:101200002DCFE82FEF70F0E0ED53FC4F5491E82F15
:10121000F0E064E0F595E7956A95E1F7ED54FC4F51
:101220003491E92FEF70F0E0ED53FC4F6491E92F1A
:10123000F0E074E0F595E7957A95E1F7ED54FC4F11
:10124000249126272295207F3527232B242709F454
:1012500008CFE22FEF70F0E0ED52FC4FE491EE2367
:1012600039F0EF3F21F0EE3F19F08E2701C080E00A
:10127000E22FF0E034E0F595E7953A95E1F7ED528D
:10128000FC4FE491EE2309F4ECCEEF3F19F41092F9
:10129000E901E7CEEE3F09F4E4CEE927E093E90166
:1012A000E0CE97FB072E16F4009406D077FD08D009
:1012B0000BD007FC05D03EF4909581959F4F089583
:1012C000709561957F4F0895AA1BBB1B51E107C024
:1012D000AA1FBB1FA617B70710F0A61BB70B881FC6
:1012E000991F5A95A9F780959095BC01CD01089555
:1012F000EE0FFF1F0590F491E02D0994F894FFCFB5
:021300000002E9
:00000001FF
